:020000040800F2
:1000000020040020050100080D0100080F01000870
:10001000110100081301000815010008000000008C
:1000200000000000000000000000000017010008B0
:1000300019010008000000001B0100081D01000854
:100040001F0100081F0100081F0100081F01000810
:100050001F0100081F0100081F0100081F01000800
:100060001F0100081F0100081F0100081F010008F0
:100070001F0100081F0100081F0100081F010008E0
:100080001F0100081F0100081F0100081F010008D0
:100090001F0100081F0100081F0100081F010008C0
:1000A0001F0100081F0100081F0100081F010008B0
:1000B0001F010008750500081F0100081F01000846
:1000C0001F0100081F0100081F0100081F01000890
:1000D0001F0100081F0100081F0100081F01000880
:1000E0001F0100081F0100081F010008DFF810D0E1
:1000F00000F01AF80048004759070008AFF30080E5
:10010000200400200648804706480047FEE7FEE737
:10011000FEE7FEE7FEE7FEE7FEE7FEE7FEE7FEE7B7
:1001200015050008ED000008064C074D06E0E068E4
:1001300040F0010394E8070098471034AC42F6D32E
:10014000FFF7D8FF68070008880700082DE9F0418D
:10015000024600250026002000230024002791F8F5
:1001600003C00CF00F0591F803C00CF0100CBCF1AB
:10017000000F03D091F802C04CEA050591F800C0C9
:10018000BCF1000F31D0146800202BE04FF0010CBF
:100190000CFA00F3B1F800C00CEA03069E4220D12D
:1001A00083004FF00F0C0CFA03F7BC4305FA03FC75
:1001B0004CEA040491F803C0BCF1280F06D14FF0BB
:1001C000010C0CFA00FCC2F814C00AE091F803C05C
:1001D000BCF1480F05D14FF0010C0CFA00FCC2F83D
:1001E00010C0401C0828D1D31460B1F800C0BCF185
:1001F000FF0F34DD546800202EE000F1080C4FF0B2
:10020000010808FA0CF3B1F800C00CEA03069E429C
:1002100021D183004FF00F0C0CFA03F7BC4305FA11
:1002200003FC4CEA040491F803C0BCF1280F05D18B
:1002300000F1080C08FA0CF8C2F8148091F803C019
:10024000BCF1480F07D100F1080C4FF0010808FA83
:100250000CF8C2F81080401C0828CED35460BDE8CA
:10026000F0814FF6FF710180022181700421C1707D
:1002700070470AB1016100E04161704710B500218B
:10028000012000F011F80021022000F00DF80021FB
:10029000032000F009F80021042000F005F80021F7
:1002A000052000F001F810BD70B504460D46062C7F
:1002B00022D2DFE804F02103090F151B2A4608218A
:1002C0000F48FFF7D6FF18E02A4610210C48FFF729
:1002D000D0FF12E02A4620210948FFF7CAFF0CE0B0
:1002E0002A4640210648FFF7C4FF06E02A4680213F
:1002F0000348FFF7BEFF00E000BF00BF70BD000075
:100300000008014008B50121042000F06BF86846A0
:10031000FFF7A7FFF820ADF8000010208DF80300CC
:1003200003208DF8020069460248FFF70FFFFFF730
:10033000A5FF08BD0008014010B504460021204675
:10034000FFF7B2FF10BD10B5044601212046FFF7AC
:10035000ABFF10BD70B5002100230F22C47804B399
:10036000154C246804F4E064C4F5E064210AC1F18A
:100370000403CA40447804FA03F18478144021430A
:1003800009010E4C0678A155047804F01F050124DC
:10039000AC4005786D11AD0005F1E025C5F80041D0
:1003A00009E0047804F01F050124AC40044D0678F0
:1003B000761145F8264070BD0CED00E000E400E049
:1003C00080E100E029B1064AD2690243044BDA61B8
:1003D00004E0034AD2698243014BDA6170470000AE
:1003E0000010024029B1064A92690243044B9A6107
:1003F00004E0034A92698243014B9A61704700000E
:100400000010024010B500F001F810BD0CB500203E
:10041000019000903348006840F480303149086012
:1004200000BF3048006800F4003000900198401C84
:100430000190009818B90198B0F5A06FF1D1294842
:10044000006800F4003010B10120009001E00020AD
:1004500000900098012843D12348006840F0100024
:10046000214908600846006820F007000860084637
:10047000006840F0020008601A4840681949486066
:100480000846406848600846406840F4806048601C
:100490000846406820F47C1048600846406840F4F4
:1004A000E81048600846006840F08070086000BFAF
:1004B0000C48006800F000700028F9D00948406836
:1004C00020F00300074948600846406840F00200F9
:1004D000486000BF0348406800F00C000828F9D1CC
:1004E0000CBD00000010024000200240042808D18A
:1004F0004FF0E021096941F004014FF0E022116161
:1005000007E04FF0E021096921F004014FF0E022FB
:100510001161704710B51348006840F0010011499F
:10052000086008464068104908400E49486008467F
:1005300000680E4908400B4908600846006820F42E
:10054000802008600846406820F4FE0048604FF4B0
:100550001F008860FFF756FF4FF0006004490860F5
:1005600010BD0000001002400000FFF8FFFFF6FE83
:1005700008ED00E010B501210C4800F05CF80128FE
:100580000FD10B48007830B90120FFF7DCFE0120C5
:100590000749087005E00120FFF7CEFE002004495E
:1005A00008700121014800F037F810BD0004004038
:1005B000140000201FB501210220FFF703FF0020D7
:1005C000ADF80A00ADF8060042F20F70ADF8080071
:1005D00041F61F40ADF8040001A90E4800F046F8AE
:1005E0001D208DF8000001208DF8030000208DF8FB
:1005F000010001208DF802006846FFF7ABFE0122E2
:100600001146044800F028F80121024800F007F8DC
:100610001FBD000000040040CA430282704721B1A0
:10062000028842F00102028004E002884FF6FE7365
:100630001A400280704730B5024600200023002493
:10064000158A05EA0103958905EA010413B10CB185
:10065000012000E0002030BD1AB183890B43838163
:1006600002E083898B438381704700000022028867
:100670001D4B98420ED01D4B98420BD0B0F1804FCD
:1006800008D01B4B984205D01A4B984202D01A4B07
:10069000984204D14FF68F731A404B881A43174B78
:1006A000984207D0164B984204D04FF6FF431A40A9
:1006B000CB881A4302808B8883850B8803850A4B7D
:1006C00098420BD0094B984208D00E4B984205D067
:1006D0000D4B984202D00D4B984201D10B7A038604
:1006E0000123838270470000002C01400034014048
:1006F0000004004000080040000C004000100040D2
:100700000014004000400140004401400048014006
:1007100002E008C8121F08C1002AFAD170477047CA
:10072000002001E001C1121F002AFBD17047000028
:1007300010B56FF00400FFF7D9FE044800680449C3
:10074000B0FBF1F00349086010BD0000000000207C
:1007500000127A0018000020FFF7EAFFFFF7D2FD31
:10076000FFF728FF00BFFEE7880700080000002011
:100770001C00000010070008A40700081C0000204F
:10078000040400002007000800A24A040000000042
:100790000000000001020304060708090000000031
:0407A0000000000055
:04000005080000ED02
:00000001FF
