:020000040800F2
:1000000020040020050100080D0100080F01000870
:10001000110100081301000815010008000000008C
:1000200000000000000000000000000017010008B0
:1000300019010008000000001B0100081D01000854
:100040001F0100081F0100081F0100081F01000810
:100050001F0100081F0100081F0100081F01000800
:100060001F0100081F0100081F0100081F010008F0
:100070001F0100081F0100081F0100081F010008E0
:100080001F0100081F0100081F0100081F010008D0
:100090001F0100081F0100081F0100081F010008C0
:1000A0001F0100081F0100081F0100081F010008B0
:1000B0001F0100081F0100081F0100081F010008A0
:1000C0001F0100081F0100081F0100081F01000890
:1000D0001F0100081F0100081F0100081F01000880
:1000E0001F0100081F0100081F010008DFF810D0E1
:1000F00000F01AF8004800474D070008AFF30080F1
:10010000200400200648804706480047FEE7FEE737
:10011000FEE7FEE7FEE7FEE7FEE7FEE7FEE7FEE7B7
:1001200029060008ED000008064C074D06E0E068CF
:1001300040F0010394E8070098471034AC42F6D32E
:10014000FFF7D8FF740700089407000821B1826800
:1001500042F00102826003E0826822F001028260C4
:100160007047000000B587B00121042000F0C4F9F9
:100170002020ADF8180000208DF81B0006A92048AB
:1001800000F0FDF80121480200F0B6F900200190CE
:100190008DF8080001208DF809004FF460200390CD
:1001A0000020049001208DF8140001A9154800F0EA
:1001B0004DF84FF4004000F093F905230122194651
:1001C000104800F06BF801210E48FFF7BFFF0D4803
:1001D00000F0C0F800BF0B4800F02DF80028FAD15D
:1001E000084800F0C7F800BF064800F00DF80028E6
:1001F000FAD10121034800F0B2F807B000BD0000B9
:100200000008014000240140014600208A6802F0F5
:1002100004020AB1012000E0002070470146C86CCA
:1002200080B270470246002013680B400BB10120DA
:1002300000E000207047014600208A6802F00802B2
:100240000AB1012000E000207047000030B50246EE
:100250000020002350680F4C20400D790C6844EAC0
:1002600005242043506090680B4C2040D1E9025493
:100270002C434D7944EA450420439060D06A20F431
:1002800070000C7C641EE4B2234340EA0350D06249
:1002900030BD0000FFFEF0FFFDF7F1FFF0B50446B2
:1002A0000D4600200021092D11DDE068A5F10A06A8
:1002B00006EB4607072606FA07F18843A5F10A066A
:1002C00006EB460603FA06F10843E0600CE02069FD
:1002D00005EB4507072606FA07F1884305EB4506B7
:1002E00003FA06F108432061072A0FDA606B561EF5
:1002F00006EB86071F2606FA07F18843561E06EB13
:10030000860605FA06F10843606322E00D2A0FDA3B
:10031000206BD61F06EB86071F2606FA07F18843D7
:10032000D61F06EB860605FA06F10843206310E0A7
:10033000E06AA2F10D0606EB86071F2606FA07F112
:100340008843A2F10D0606EB860605FA06F108437E
:10035000E062F0BD816841F008018160704721B121
:10036000826842F4A002826003E0826822F4A00264
:1003700082607047816841F00401816070472DE917
:10038000F04102460025002600200023002400271B
:1003900091F803C00CF00F0591F803C00CF0100C9D
:1003A000BCF1000F03D091F802C04CEA050591F8AA
:1003B00000C0BCF1000F31D0146800202BE04FF0DA
:1003C000010C0CFA00F3B1F800C00CEA03069E42DF
:1003D00020D183004FF00F0C0CFA03F7BC4305FA51
:1003E00003FC4CEA040491F803C0BCF1280F06D1C9
:1003F0004FF0010C0CFA00FCC2F814C00AE091F8AE
:1004000003C0BCF1480F05D14FF0010C0CFA00FC01
:10041000C2F810C0401C0828D1D31460B1F800C045
:10042000BCF1FF0F34DD546800202EE000F1080C11
:100430004FF0010808FA0CF3B1F800C00CEA03060B
:100440009E4221D183004FF00F0C0CFA03F7BC43FE
:1004500005FA03FC4CEA040491F803C0BCF1280F30
:1004600005D100F1080C08FA0CF8C2F8148091F8D4
:1004700003C0BCF1480F07D100F1080C4FF0010890
:1004800008FA0CF8C2F81080401C0828CED354603B
:10049000BDE8F08110B5002400BF02210548FFF738
:1004A000C1FE0028F9D00348FFF7B8FE04462046F5
:1004B00010BD00000024014070B504460025002650
:1004C00007E0FFF7E7FF0544052000F001F9701C85
:1004D000C6B2A642F5DBB5FBF4F080B270BD0000F9
:1004E00001460020034A506820F440400843506011
:1004F000704700000010024029B1064A9269024389
:10050000044B9A6104E0034A92698243014B9A6169
:10051000704700000010024010B500F001F810BD57
:100520000CB50020019000903348006840F4803002
:100530003149086000BF3048006800F40030009086
:100540000198401C0190009818B90198B0F5A06F6F
:10055000F1D12948006800F4003010B1012000906A
:1005600001E0002000900098012843D12348006852
:1005700040F01000214908600846006820F007009C
:1005800008600846006840F0020008601A484068A9
:10059000194948600846406848600846406840F489
:1005A000806048600846406820F47C104860084637
:1005B000406840F4E81048600846006840F08070E9
:1005C000086000BF0C48006800F000700028F9D0F7
:1005D0000948406820F00300074948600846406821
:1005E00040F00200486000BF0348406800F00C0083
:1005F0000828F9D10CBD0000001002400020024084
:10060000042808D14FF0E021096941F004014FF0BE
:10061000E022116107E04FF0E021096921F00401B7
:100620004FF0E0221161704710B51348006840F0A8
:1006300001001149086008464068104908400E4909
:100640004860084600680E4908400B4908600846A3
:10065000006820F4802008600846406820F4FE000E
:1006600048604FF41F008860FFF756FF4FF00060AE
:100670000449086010BD0000001002400000FFF8AF
:10068000FFFFF6FE08ED00E002E008C8121F08C1F7
:10069000002AFAD170477047002001E001C1121F03
:1006A000002AFBD17047000010B56FF00400FFF77F
:1006B000A7FF044800680449B0FBF1F00349086053
:1006C00010BD00000000002000127A001800002079
:1006D00010B504464FF47A7104FB01F000F002F803
:1006E00010BD000010B5184B1B6800FB03F2012879
:1006F00005D1A2F108034FF0E024636104E0A2F108
:100700000A034FF0E024636100234FF0E024A3616B
:1007100023461B6943F00103236100BF4FF0E02330
:10072000196901F001031BB101F48033002BF5D0EE
:100730004FF0E0231B6923F001034FF0E024236115
:100740000023A36110BD000018000020FFF7ACFFDC
:10075000FFF708FD0BE01E20FFF7AEFE40F6FF712D
:10076000081A034908804FF47A70FFF7B1FFF2E7E7
:100770001400002094070008000000201C00000066
:1007800088060008B00700081C00002004040000D0
:100790009806000800A24A040000000000000000C3
:1007A0000102030406070809000000000000000021
:04000005080000ED02
:00000001FF
