:020000040800F2
:1000000020040020050100080D0100080F01000870
:10001000110100081301000815010008000000008C
:1000200000000000000000000000000017010008B0
:1000300019010008000000001B0100081D01000854
:100040001F0100081F0100081F0100081F01000810
:100050001F0100081F0100081F0100081F01000800
:100060001F0100081F0100081F0100081F010008F0
:100070001F0100081F0100081F0100081F010008E0
:100080001F0100081F0100081F0100081F010008D0
:100090001F0100081F0100081F0100081F010008C0
:1000A0001F0100081F0100081F0100081F010008B0
:1000B0001F0100081F0100081F0100081F010008A0
:1000C0001F0100081F0100081F0100081F01000890
:1000D0001F0100081F0100081F0100081F01000880
:1000E0001F0100081F0100081F010008DFF810D0E1
:1000F00000F01AF80048004715060008AFF300802A
:10010000200400200648804706480047FEE7FEE737
:10011000FEE7FEE7FEE7FEE7FEE7FEE7FEE7FEE7B7
:10012000F1040008ED000008064C074D06E0E06809
:1001300040F0010394E8070098471034AC42F6D32E
:10014000FFF7D8FF64060008840600082DE9F04197
:10015000024600250026002000230024002791F8F5
:1001600003C00CF00F0591F803C00CF0100CBCF1AB
:10017000000F03D091F802C04CEA050591F800C0C9
:10018000BCF1000F31D0146800202BE04FF0010CBF
:100190000CFA00F3B1F800C00CEA03069E4220D12D
:1001A00083004FF00F0C0CFA03F7BC4305FA03FC75
:1001B0004CEA040491F803C0BCF1280F06D14FF0BB
:1001C000010C0CFA00FCC2F814C00AE091F803C05C
:1001D000BCF1480F05D14FF0010C0CFA00FCC2F83D
:1001E00010C0401C0828D1D31460B1F800C0BCF185
:1001F000FF0F34DD546800202EE000F1080C4FF0B2
:10020000010808FA0CF3B1F800C00CEA03069E429C
:1002100021D183004FF00F0C0CFA03F7BC4305FA11
:1002200003FC4CEA040491F803C0BCF1280F05D18B
:1002300000F1080C08FA0CF8C2F8148091F803C019
:10024000BCF1480F07D100F1080C4FF0010808FA83
:100250000CF8C2F81080401C0828CED35460BDE8CA
:10026000F0810246002093680B400BB1012000E0B2
:10027000002070474FF6FF71018002218170042138
:10028000C17070470AB1016100E041617047000030
:1002900008B50121102000F093F84FF40050ADF89C
:1002A000000048208DF8030003208DF80200694605
:1002B0000148FFF74BFF08BD0010014010B54FF497
:1002C00000510848FFF7CDFF48B900BF4FF4005177
:1002D0000448FFF7C6FF0028F8D0012010BD002019
:1002E000FCE700000010014010B50021012000F0E3
:1002F00011F80021022000F00DF80021032000F089
:1003000009F80021042000F005F80021052000F084
:1003100001F810BD70B504460D46062C22D2DFE868
:1003200004F02103090F151B2A4608210F48FFF787
:10033000A9FF18E02A4610210C48FFF7A3FF12E09E
:100340002A4620210948FFF79DFF0CE02A4640215C
:100350000648FFF797FF06E02A4680210348FFF78B
:1003600091FF00E000BF00BF70BD00000008014029
:1003700008B50121042000F023F86846FFF77AFF52
:10038000F820ADF8000010208DF8030003208DF850
:10039000020069460248FFF7D9FEFFF7A5FF08BD36
:1003A0000008014010B5044600212046FFF7B2FFC7
:1003B00010BD10B5044601212046FFF7ABFF10BD6C
:1003C00029B1064A92690243044B9A6104E0034A48
:1003D00092698243014B9A6170470000001002400D
:1003E00010B500F001F810BD0CB500200190009090
:1003F0003348006840F480303149086000BF30481D
:10040000006800F4003000900198401C01900098B2
:1004100018B90198B0F5A06FF1D12948006800F42F
:10042000003010B10120009001E000200090009801
:10043000012843D12348006840F01000214908609A
:100440000846006820F0070008600846006840F091
:10045000020008601A484068194948600846406828
:1004600048600846406840F480604860084640683C
:1004700020F47C1048600846406840F4E81048606A
:100480000846006840F08070086000BF0C480068B3
:1004900000F000700028F9D00948406820F00300FF
:1004A000074948600846406840F00200486000BFC5
:1004B0000348406800F00C000828F9D10CBD00008A
:1004C0000010024000200240042808D14FF0E02133
:1004D000096941F004014FF0E022116107E04FF09B
:1004E000E021096921F004014FF0E0221161704719
:1004F00010B51348006840F0010011490860084633
:100500004068104908400E494860084600680E4996
:1005100008400B4908600846006820F48020086005
:100520000846406820F4FE0048604FF41F008860D1
:10053000FFF756FF4FF000600449086010BD00004F
:10054000001002400000FFF8FFFFF6FE08ED00E09B
:1005500002E008C8121F08C1002AFAD1704770478C
:10056000002001E001C1121F002AFBD170470000EA
:1005700010B56FF00400FFF7A7FF044800680449B6
:10058000B0FBF1F00349086010BD0000000000203E
:1005900000127A001800002010B504464FF47A715A
:1005A00004FB01F000F002F810BD000010B5184B7C
:1005B0001B6800FB03F2012805D1A2F108034FF0EC
:1005C000E024636104E0A2F10A034FF0E0246361D8
:1005D00000234FF0E024A36123461B6943F001038D
:1005E000236100BF4FF0E023196901F001031BB143
:1005F00001F48033002BF5D04FF0E0231B6923F08A
:1006000001034FF0E02423610023A36110BD00002B
:1006100018000020FFF7ACFFFFF7AAFEFFF738FE37
:100620001CE0FFF74BFEB0B10D48007808B901207F
:1006300000E000200A4908700846007818B101203F
:10064000FFF7B7FE02E00120FFF7ACFE00BFFFF7A7
:1006500035FE0028FBD10A20FFF79EFFE1E70000EE
:100660001400002084060008000000201C00000088
:1006700050050008A00600081C000020040400002B
:100680006005000800A24A0400000000000000000D
:100690000102030406070809000000000000000032
:04000005080000ED02
:00000001FF
