:020000040800F2
:1000000020040020050100080D0100080F01000870
:10001000110100081301000815010008000000008C
:1000200000000000000000000000000017010008B0
:1000300019010008000000001B0100081D01000854
:100040001F0100081F0100081F0100081F01000810
:100050001F0100081F0100081F0100081F01000800
:100060001F0100081F0100081F0100081F010008F0
:100070001F0100081F0100081F0100081F010008E0
:100080001F0100081F0100081F0100081F010008D0
:100090001F0100081F0100081F0100081F010008C0
:1000A0001F0100081F0100081F0100081F010008B0
:1000B0001F0100081F0100081F0100081F010008A0
:1000C0001F0100081F0100081F0100081F01000890
:1000D0001F0100081F0100081F0100081F01000880
:1000E0004D0100081F0100081F010008DFF810D0B3
:1000F00000F01AF800480047CD070008AFF3008071
:10010000200400200648804706480047FEE7FEE737
:10011000FEE7FEE7FEE7FEE7FEE7FEE7FEE7FEE7B7
:10012000A9060008ED000008064C074D06E0E0684F
:1001300040F0010394E8070098471034AC42F6D32E
:10014000FFF7D8FF500800087008000810B54FF4FA
:10015000005000F041F860B10648007828B901204D
:10016000044908700020044908604FF4005000F072
:1001700005F810BD18000020140000200149086097
:1001800070470000140401400EB50121084600F03C
:10019000F3F90D21022000F07DF84FF4005001909A
:1001A00000208DF808000C208DF8090001208DF842
:1001B0000A0001A800F024F828208DF80000002093
:1001C0008DF801008DF8020001208DF803006846CB
:1001D00000F09AF90EBD0000014600200022074BF6
:1001E0001B6803EA0102054B14331B680B4013B173
:1001F0000AB1012000E00020704700000004014027
:10020000002123498279002A3AD00A4612680368FD
:100210009A430B461A600A1D126803689A430B1D25
:100220001A60027911440A6803681A430A60184A7E
:100230000832126803689A43154B08331A601A1D76
:10024000126803689A43124B0C331A604279102AE1
:100250000ED11A1F126803681A430D4B08331A6037
:100260001A1D126803681A43094B0C331A600DE01B
:100270000749427911440A6803681A430A6005E095
:10028000027911440A6803689A430A6070470000C3
:100290000004014030B500228B071C0F0F2303FA26
:1002A00004F20B4B8C1053F824309343084C8D1000
:1002B00044F8253023468C1053F824308C07240F43
:1002C00000FA04F42343024C8D1044F8253030BD6D
:1002D000080001402DE9F0410246002500260020DB
:1002E00000230024002791F803C00CF00F0591F8BB
:1002F00003C00CF0100CBCF1000F03D091F802C049
:100300004CEA050591F800C0BCF1000F31D014682B
:1003100000202BE04FF0010C0CFA00F3B1F800C004
:100320000CEA03069E4220D183004FF00F0C0CFA1A
:1003300003F7BC4305FA03FC4CEA040491F803C03C
:10034000BCF1280F06D14FF0010C0CFA00FCC2F8EA
:1003500014C00AE091F803C0BCF1480F05D14FF07A
:10036000010C0CFA00FCC2F810C0401C0828D1D3C4
:100370001460B1F800C0BCF1FF0F34DD54680020F8
:100380002EE000F1080C4FF0010808FA0CF3B1F868
:1003900000C00CEA03069E4221D183004FF00F0CEF
:1003A0000CFA03F7BC4305FA03FC4CEA040491F889
:1003B00003C0BCF1280F05D100F1080C08FA0CF8B5
:1003C000C2F8148091F803C0BCF1480F07D100F1C6
:1003D000080C4FF0010808FA0CF8C2F81080401C15
:1003E0000828CED35460BDE8F0814FF6FF7101803C
:1003F000022181700421C17070470AB1016100E0DF
:100400004161704708B50121102000F0B5F84FF4A4
:100410000050ADF8000048208DF8030003208DF84F
:10042000020069460148FFF755FF08BD0010014072
:1004300010B50021012000F011F80021022000F089
:100440000DF80021032000F009F80021042000F03D
:1004500005F80021052000F001F810BD70B5044634
:100460000D46062C22D2DFE804F02103090F151BEC
:100470002A4608210F48FFF7C0FF18E02A4610213E
:100480000C48FFF7BAFF12E02A4620210948FFF77F
:10049000B4FF0CE02A4640210648FFF7AEFF06E015
:1004A0002A4680210348FFF7A8FF00E000BF00BFF5
:1004B00070BD00000008014008B50121042000F0D3
:1004C0005BF86846FFF791FFF820ADF800001020B8
:1004D0008DF8030003208DF8020069460248FFF7FB
:1004E000F9FEFFF7A5FF08BD0008014010B504465E
:1004F00000212046FFF7B2FF10BD10B504460121D0
:100500002046FFF7ABFF10BD70B5002100230F227E
:10051000C47804B3154C246804F4E064C4F5E064C2
:10052000210AC1F10403CA40447804FA03F1847833
:100530001440214309010E4C0678A155047804F0BB
:100540001F050124AC4005786D11AD0005F1E025D3
:10055000C5F8004109E0047804F01F050124AC400F
:10056000044D0678761145F8264070BD0CED00E08C
:1005700000E400E080E100E029B1064A926902430C
:10058000044B9A6104E0034A92698243014B9A61E9
:10059000704700000010024010B500F001F810BDD7
:1005A0000CB50020019000903348006840F4803082
:1005B0003149086000BF3048006800F40030009006
:1005C0000198401C0190009818B90198B0F5A06FEF
:1005D000F1D12948006800F4003010B101200090EA
:1005E00001E0002000900098012843D123480068D2
:1005F00040F01000214908600846006820F007001C
:1006000008600846006840F0020008601A48406828
:10061000194948600846406848600846406840F408
:10062000806048600846406820F47C1048600846B6
:10063000406840F4E81048600846006840F0807068
:10064000086000BF0C48006800F000700028F9D076
:100650000948406820F003000749486008464068A0
:1006600040F00200486000BF0348406800F00C0002
:100670000828F9D10CBD0000001002400020024003
:10068000042808D14FF0E021096941F004014FF03E
:10069000E022116107E04FF0E021096921F0040137
:1006A0004FF0E0221161704710B51348006840F028
:1006B00001001149086008464068104908400E4989
:1006C0004860084600680E4908400B490860084623
:1006D000006820F4802008600846406820F4FE008E
:1006E00048604FF41F008860FFF756FF4FF000602E
:1006F0000449086010BD0000001002400000FFF82F
:10070000FFFFF6FE08ED00E002E008C8121F08C176
:10071000002AFAD170477047002001E001C1121F82
:10072000002AFBD17047000010B56FF00400FFF7FE
:10073000A7FF044800680449B0FBF1F003490860D2
:1007400010BD00000000002000127A001C000020F4
:1007500010B504464FF47A7104FB01F000F002F882
:1007600010BD000010B5184B1B6800FB03F20128F8
:1007700005D1A2F108034FF0E024636104E0A2F187
:100780000A034FF0E024636100234FF0E024A361EB
:1007900023461B6943F00103236100BF4FF0E023B0
:1007A000196901F001031BB101F48033002BF5D06E
:1007B0004FF0E0231B6923F001034FF0E024236195
:1007C0000023A36110BD00001C0000200124FFF7DE
:1007D000ABFFFFF771FEFFF715FEFFF7D5FCFFF744
:1007E00027FE2FE018480078F8B1184800680A285A
:1007F00013D2FFF71DFE0120FFF77FFEFA20FFF75F
:10080000A7FF0120FFF772FEFA20FFF7A1FF0F48B4
:100810000068401C0D49086014E000200A49087077
:100820000A490860FFF704FE0CE0FFF701FE2046CE
:10083000FFF763FEC820FFF78BFF601CC4B2052CD6
:1008400000DD0124CEE70000180000201400002085
:1008500070080008000000202000000008070008C1
:10086000900800082000002000040000180700087D
:1008700000A24A040000000000000000010203047E
:10088000060708090000000000000000000000004A
:04000005080000ED02
:00000001FF
