:020000040800F2
:1000000018040020050100080D0100080F01000878
:10001000110100081301000815010008000000008C
:1000200000000000000000000000000017010008B0
:1000300019010008000000001B0100081D01000854
:100040001F0100081F0100081F0100081F01000810
:100050001F0100081F0100081F0100081F01000800
:100060001F0100081F0100081F0100081F010008F0
:100070001F0100081F0100081F0100081F010008E0
:100080001F0100081F0100081F0100081F010008D0
:100090001F0100081F0100081F0100081F010008C0
:1000A0001F0100081F0100081F0100081F010008B0
:1000B0001F0100081F0100081F0100081F010008A0
:1000C0001F0100081F0100081F0100081F01000890
:1000D0001F0100081F0100081F0100081F01000880
:1000E0001F0100081F0100081F010008DFF810D0E1
:1000F00000F01AF800480047110A0008AFF300802A
:10010000180400200648804706480047FEE7FEE73F
:10011000FEE7FEE7FEE7FEE7FEE7FEE7FEE7FEE7B7
:1001200091090008ED000008064C074D06E0E06864
:1001300040F0010394E8070098471034AC42F6D32E
:10014000FFF7D8FFD8270008F82700082DE9F0416D
:10015000024600250026002000230024002791F8F5
:1001600003C00CF00F0591F803C00CF0100CBCF1AB
:10017000000F03D091F802C04CEA050591F800C0C9
:10018000BCF1000F31D0146800202BE04FF0010CBF
:100190000CFA00F3B1F800C00CEA03069E4220D12D
:1001A00083004FF00F0C0CFA03F7BC4305FA03FC75
:1001B0004CEA040491F803C0BCF1280F06D14FF0BB
:1001C000010C0CFA00FCC2F814C00AE091F803C05C
:1001D000BCF1480F05D14FF0010C0CFA00FCC2F83D
:1001E00010C0401C0828D1D31460B1F800C0BCF185
:1001F000FF0F34DD546800202EE000F1080C4FF0B2
:10020000010808FA0CF3B1F800C00CEA03069E429C
:1002100021D183004FF00F0C0CFA03F7BC4305FA11
:1002200003FC4CEA040491F803C0BCF1280F05D18B
:1002300000F1080C08FA0CF8C2F8148091F803C019
:10024000BCF1480F07D100F1080C4FF0010808FA83
:100250000CF8C2F81080401C0828CED35460BDE8CA
:10026000F0810000F0B50A4600230024002100259B
:1002700000F00046B6F1004F02D11D4EF16901E0D9
:100280001B4E7168C0F3034583B200F44016B6F507
:10029000401F08D121F07061154E766826F0706617
:1002A000134F7E6012E000F48016B6F5801F06D171
:1002B000032606FA05F4A14341F0706106E0460DFD
:1002C000360103FA06F6B14341F0706122B1460DE2
:1002D000360103FA06F6314300F00046B6F1004F4E
:1002E00002D1034EF16101E0014E7160F0BD0000EA
:1002F0000000014070B502460024002500230020C4
:10030000958A138B1B0445EA030626F07F4404EA12
:1003100001068E4201D1012000E0002070BD21B114
:10032000028842F00102028004E002884FF6FE7368
:100330001A400280704721B1028842F48072028024
:1003400004E002884FF6FF631A400280704721B133
:10035000028842F40072028004E002884FF6FF53E4
:100360001A400280704700002DE9F04385B0044632
:100370000D460026B1460427DFF8CC80A6884FF64C
:10038000C0700640684600F025FADDF808802F4866
:10039000B8FBF0F01FFA80F946EA0906A68020882B
:1003A0004FF6FE71084020800026294928688842BF
:1003B0000CD828684000B8FBF0F087B2042F00DAB0
:1003C00004273E4309F10100208427E0E8884BF62A
:1003D000FF71884206D1286800EB4000B8FBF0F0BE
:1003E00087B209E0286800EBC00101EB0010B8FB00
:1003F000F0F087B247F48047C7F30B0008B947F025
:10040000010747F4004006434FF4967009FB00F0E3
:100410004FF47A7190FBF1F0401C2084A683208871
:1004200040F00100208026884FF6F5300640A8886D
:100430006989084306432680A889298908432081C1
:1004400005B0BDE8F083000000127A0040420F00C2
:10045000A086010012B141F0010102E04FF6FE73E7
:100460001940018270470182704770B500240EE088
:100470002146002000F0ACF8002504E0002000F048
:100480004DF9681CC5B2802DF8DB601CC4B2082C85
:10049000EEDB70BD00B585B00121084600F08AF999
:1004A00001210220FFF7DEFE0121082000F082F981
:1004B0004FF44070ADF810001C208DF8130003209D
:1004C0008DF8120004A93E48FFF740FE01214805BF
:1004D00000F060F90020ADF804004BF6FF70ADF8B5
:1004E00006000020ADF808004FF48060ADF80A0067
:1004F0000001ADF80C003348009069463248FFF720
:1005000033FF01213048FFF70AFF002000E0401CC4
:100510002E498842FBD3AE2000F0C4F8002000F042
:10052000C1F8102000F0BEF8402000F0BBF8B02069
:1005300000F0B8F8812000F0B5F8FF2000F0B2F824
:10054000A12000F0AFF8A62000F0ACF8A82000F041
:10055000A9F83F2000F0A6F8C82000F0A3F8D320A7
:1005600000F0A0F8002000F09DF8D52000F09AF8E7
:10057000802000F097F8D82000F094F8052000F0D3
:1005800091F8D92000F08EF8F12000F08BF8DA20F5
:1005900000F088F8122000F085F8DB2000F082F8E7
:1005A000302000F07FF88D2000F07CF8142000F05F
:1005B00079F8AF2000F076F8FFF757FF05B000BDDF
:1005C000000C0140801A06000054004040420F0019
:1005D00070B504460D4605F1B001C8B200F062F8EE
:1005E000102141EA141000F05DF804F00F0000F053
:1005F00059F870BD2DE9F04706460C461746984657
:10060000A7F1200000F0FF097F2E02DD0026A01CCC
:10061000C4B2B8F1100F22D121463046FFF7D8FFFF
:10062000002507E00F4901EB0911485D00F076F85D
:10063000681CC5B2082DF5DB601CC1B23046FFF75F
:10064000C7FF002509E0074901EB091205F1080180
:10065000505C00F063F8681CC5B2082DF3DBBDE800
:10066000F0870000E41000082DE9F04104460F4631
:100670001546984600260FE0AA5D434639462046B7
:10068000FFF7B8FF04F10800C4B2782C02DD0024A3
:10069000B81CC7B2701CC6B2A85D0028ECD1BDE87A
:1006A000F081000010B5044601211948FFF743FE10
:1006B00000BF18491648FFF71DFE0028F9D0002298
:1006C00078211348FFF7C6FE00BF13491048FFF713
:1006D00011FE0028F9D000210D48FFF7C4FE00BF2D
:1006E0000D49891C0A48FFF705FE0028F8D021466D
:1006F0000748FFF7B8FE00BF0749891C0448FFF709
:10070000F9FD0028F8D001210148FFF720FE10BDB7
:1007100000540040010003008200070010B50446A9
:1007200001211948FFF707FE00BF18491648FFF7D7
:10073000E1FD0028F9D0002278211348FFF78AFE56
:1007400000BF13491048FFF7D5FD0028F9D040211C
:100750000D48FFF788FE00BF0D49891C0A48FFF7C6
:10076000C9FD0028F8D021460748FFF77CFE00BFEE
:100770000749891C0448FFF7BDFD0028F8D0012176
:100780000148FFF7E4FD10BD0054004001000300E4
:100790008200070029B1064AD2690243044BDA619C
:1007A00004E0034AD2698243014BDA6170470000DA
:1007B0000010024029B1064A92690243044B9A6133
:1007C00004E0034A92698243014B9A61704700003A
:1007D0000010024030B500210022002400232D4DDE
:1007E0006D6805F00C0121B1042905D0082923D139
:1007F00005E0294D056022E0274D05601FE0254DED
:100800006D6805F47012234D6D6805F4803402257F
:1008100005EB92421CB9214D554305600BE01D4D7F
:100820006D6805F400351DB11C4D5543056002E0AF
:10083000194D5543056002E0174D056000BF00BF2C
:10084000144D6D6805F0F0010909154D6B5C0568E4
:10085000DD4045600F4D6D6805F4E061090A104DFB
:100860006B5C4568DD4085600A4D6D6805F460513C
:10087000C90A0B4D6B5C4568DD40C560054D6D6870
:1008800005F44041890B074D6B5CC568B5FBF3F57A
:10089000056130BD0010024000127A0000093D00E1
:1008A000000000201000002010B500F001F810BD7D
:1008B0000CB50020019000903348006840F480306F
:1008C0003149086000BF3048006800F400300090F3
:1008D0000198401C0190009818B90198B0F5A06FDC
:1008E000F1D12948006800F4003010B101200090D7
:1008F00001E0002000900098012843D123480068BF
:1009000040F01000214908600846006820F0070008
:1009100008600846006840F0020008601A48406815
:10092000194948600846406848600846406840F4F5
:10093000806048600846406820F47C1048600846A3
:10094000406840F4E81048600846006840F0807055
:10095000086000BF0C48006800F000700028F9D063
:100960000948406820F0030007494860084640688D
:1009700040F00200486000BF0348406800F00C00EF
:100980000828F9D10CBD00000010024000200240F0
:1009900010B51348006840F001001149086008468E
:1009A0004068104908400E494860084600680E49F2
:1009B00008400B4908600846006820F48020086061
:1009C0000846406820F4FE0048604FF41F0088602D
:1009D000FFF76AFF4FF000600449086010BD000097
:1009E000001002400000FFF8FFFFF6FE08ED00E0F7
:1009F00002E008C8121F08C1002AFAD170477047E8
:100A0000002001E001C1121F002AFBD17047000045
:100A1000FFF740FD102306A200210846FFF724FE41
:100A2000102306A202210020FFF71EFE00BFFEE7F2
:100A300048656C6C6F20576F726C6400584A2D5279
:100A40006F626F74000000000000000000000000F2
:100A5000002F000000000700070000147F147F141F
:100A600000242A7F2A1200626408132300364955A5
:100A7000225000000503000000001C22410000007D
:100A800041221C000014083E08140008083E080813
:100A9000000000A06000000808080808000060606E
:100AA0000000002010080402003E5149453E0000AD
:100AB000427F4000004261514946002141454B318F
:100AC000001814127F10002745454539003C4A495B
:100AD00049300001710905030036494949360006CD
:100AE0004949291E00003636000000005636000035
:100AF00000081422410000141414141400004122B0
:100B0000140800020151090600324959513E007C87
:100B10001211127C007F49494936003E4141412271
:100B2000007F4141221C007F49494941007F09095A
:100B30000901003E4149497A007F0808087F00000A
:100B4000417F4100002040413F01007F08142241C5
:100B5000007F40404040007F020C027F007F04087D
:100B6000107F003E4141413E007F09090906003ED9
:100B70004151215E007F0919294600464949493102
:100B80000001017F0101003F4040403F001F204025
:100B9000201F003F4038403F0063140814630007E3
:100BA0000870080700615149454300007F4141003A
:100BB00000552A552A55000041417F0000040201DA
:100BC00002040040404040400000010204000020B8
:100BD00054545478007F48444438003844444420F6
:100BE00000384444487F00385454541800087E09A3
:100BF00001020018A4A4A47C007F0804047800006B
:100C0000447D4000004080847D00007F1028440027
:100C10000000417F4000007C04180478007C080438
:100C2000047800384444443800FC24242418001874
:100C3000242418FC007C0804040800485454542060
:100C400000043F444020003C4040207C001C2040E9
:100C5000201C003C4030403C004428102844001C2C
:100C6000A0A0A07C004464544C4414141414141424
:100C70000000000000000000000000000000FC0078
:100C80000000000002000000000C020C0200000046
:100C90000000000090D0BCD0BC9000030003000016
:100CA0001824FE448C000302070201001824D8B067
:100CB0004C80000300010201C038E438E00001026A
:100CC000020102020806000000000000000000000F
:100CD000000000F80402000000010204000204F811
:100CE00000000004020100009060F8609000000025
:100CF000010000002020FC20200000000100000076
:100D00000000000000000806000000002020202055
:100D100020000000000000000000000000000002B1
:100D2000000000000080601C0200040300000000BE
:100D3000F8040404F8000102020201000008FC00AB
:100D4000000000020302000018844424180003027B
:100D50000202020008042424D80001020202010059
:100D600040B088FC80000000000302003C242424E2
:100D7000C400010202020100F824242CC000010278
:100D8000020201000C04E41C040000000300000047
:100D9000D8242424D800010202020100384444442B
:100DA000F800000302020100000010000000000033
:100DB000020000000000200000000000060000000B
:100DC00000205088040200000000010290909090E2
:100DD0009000000000000000000204885020000283
:100DE000010000001804C4241800000002000000E4
:100DF000F804E494F80001020202020000E09CF012
:100E0000800002030000030204FC2424D800020333
:100E100002020100F80404040C00010202020100B5
:100E200004FC0404F80002030202010004FC247420
:100E30000C0002030202030004FC24740C000203F1
:100E400002000000F0080444CC400001020201004E
:100E500004FC2020FC040203000003020404FC0440
:100E60000400020203020200000404FC040406045D
:100E70000403000004FC24D00C040203020003025B
:100E800004FC04000000020302020203FC3CC03C1C
:100E9000FC0003000300030004FC30C4FC04020354
:100EA00002000300F8040404F80001020202010039
:100EB00004FC24241800020302000000F8848404C7
:100EC000F80001020207050004FC246498000203F4
:100ED00002000302182424448C00030202020100D1
:100EE0000C04FC040C0000020302000004FC0000DF
:100EF000FC04000102020100047C80E01C040000EC
:100F0000030000001CE03CE01C00000300030000A4
:100F1000049C609C0400020300030200041CE01C0B
:100F200004000002030200000C84641C040002039D
:100F3000020203000000FE02020000000704040099
:100F4000000E30C00000000000010200000202FE9E
:100F50000000000404070000000402040000000078
:100F60000000000000000000000008080808080851
:100F70000000020000000000000000000040A0A0EF
:100F8000C00000010202030204FC2020C000000394
:100F90000202010000C020206000000102020200E5
:100FA00000C02024FC0000010202030200C0A0A037
:100FB000C0000001020202000020F8242404000204
:100FC000030202000040A0A0602000070A0A0A04F1
:100FD00004FC2020C0000203020003020020E40001
:100FE0000000000203020000000020E400000808E6
:100FF0000807000004FC80E0202002030200030236
:101000000404FC000000020203020200E020E020D1
:10101000C00003000300030020E02020C000020302
:101020000200030200C02020C000000102020100F3
:1010300020E02020C000080F0A02010000C020208C
:10104000E0000001020A0F0820E040202000020317
:10105000020000000060A0A02000000202020300C5
:101060000020F820000000000102020020E0002023
:10107000E00000010202030220E020806020000066
:10108000030100006080E0806000000300030000B6
:1010900020608060200002030003020020E0208026
:1010A00060200808070100000020A0602000000266
:1010B00003020200000020DE02000000000704001E
:1010C000000000FF00000000000F00000002DE2012
:1010D00000000004070000000201020404020000F6
:1010E0000000000000000000000000000000000000
:1010F00000000000000000F80000000000000033C5
:101100003000000000100C06100C0600000000006B
:101110000000000040C07840C0784000043F040454
:101120003F040400007088FC08300000001820FF15
:10113000211E0000F008F000E018000000211C0350
:101140001E211E0000F00888700000001E212324CC
:101150001927211010160E000000000000000000EA
:1011600000000000000000E018040200000000077A
:101170001820400000020418E00000000040201881
:1011800007000000404080F0804040000202010F54
:1011900001020200000000F0000000000101011F38
:1011A00001010100000000000000000080B070009C
:1011B000000000000000000000000000000101012C
:1011C00001010101000000000000000000303000BB
:1011D0000000000000000000806018040060180695
:1011E0000100000000E010080810E000000F1020CF
:1011F00020100F00001010F8000000000020203F19
:1012000020200000007008080888700000302824A2
:101210002221300000300888884830000018202043
:1012200020110E000000C02010F800000007042468
:10123000243F240000F808888808080000192120AD
:1012400020110E0000E0108888180000000F112007
:1012500020110E0000380808C83808000000003FC0
:10126000000000000070880808887000001C22211F
:1012700021221C0000E010080810E00000003122CC
:1012800022110F00000000C0C0000000000000306C
:1012900030000000000000800000000000008060BE
:1012A000000000000000804020100800000102043F
:1012B0000810200040404040404040000404040426
:1012C00004040400000810204080000000201008E2
:1012D00004020100007048080808F0000000003017
:1012E00036010000C030C828E810E00007182724A5
:1012F00023140B000000C038E0000000203C230253
:101300000227382008F8888888700000203F2020B5
:1013100020110E00C03008080808380007182020E7
:101320002010080008F808080810E000203F2020DE
:1013300020100F0008F88888E8081000203F2020BF
:101340002320180008F88888E8081000203F2000B3
:1013500003000000C03008080838000007182020EB
:10136000221E020008F808000008F808203F2101AA
:1013700001213F20000808F8080800000020203F55
:101380002020000000000808F8080800C0808080C5
:101390007F00000008F888C028180800203F2001BE
:1013A0002638200008F8080000000000203F202018
:1013B0002020300008F8F800F8F80800203F003F2F
:1013C000003F200008F830C00008F808203F200047
:1013D00007183F00E01008080810E0000F10202058
:1013E00020100F0008F808080808F000203F21012D
:1013F00001010000E01008080810E0000F18242484
:1014000038504F0008F8888888887000203F2000F6
:10141000030C3020007088080808380000382021AC
:1014200021221C00180808F8080818000000203FB6
:101430002000000008F808000008F808001F20201D
:1014400020201F000878880000C8380800000738EE
:101450000E010000F80800F80008F800033C07003F
:10146000073C0300081868808068180820302C03A7
:10147000032C30200838C800C83808000000203F7E
:101480002000000010080808C8380800203826216D
:1014900020201800000000FE020202000000007F71
:1014A00040404000000C30C000000000000000017F
:1014B0000638C00000020202FE000000004040406A
:1014C0007F0000000000040202020400000000008F
:1014D000000000000000000000000000808080800C
:1014E00080808080000202040000000000000000F4
:1014F000000000000000808080800000001924228D
:1015000022223F2008F8008080000000003F1120C8
:1015100020110E000000008080800000000E1120CD
:1015200020201100000000808088F800000E1120AB
:1015300020103F200000808080800000001F2222B9
:1015400022221300008080F0888888180020203F25
:10155000202000000000808080808000006B949438
:101560009493600008F8008080800000203F2100F4
:1015700000203F2000809898000000000020203FBD
:1015800020200000000000809898000000C08080AB
:10159000807F000008F8000080808000203F240247
:1015A0002D302000000808F8000000000020203F37
:1015B000202000008080808080808000203F2000EC
:1015C0003F20003F8080008080800000203F21007D
:1015D00000203F200000808080800000001F20202D
:1015E00020201F00808000808000000080FFA1205C
:1015F00020110E000000008080808000000E11206D
:1016000020A0FF80808080008080800020203F21FB
:1016100020000100000080808080800000332424AE
:1016200024241900008080E0808000000000001F5A
:10163000202000008080000000808000001F20200B
:1016400020103F20808080000080808000010E30CC
:101650000806010080800080008080800F300C032D
:101660000C300F0000808000808080000020312E30
:101670000E312000808080000080808080818E700C
:101680001806010000808080808080000021302CBE
:101690002221300000000000807C020200000000D7
:1016A000003F404000000000FF000000000000007C
:1016B000FF0000000002027C800000000040403F6C
:1016C0000000000000060101020204040000000006
:1016D000000000000000000000000000000000000A
:1016E00000000000000000000000000000000000FA
:1016F00000000000000000000000000000F0F0F01A
:10170000000000000000000000017F010000000058
:1017100000000000001C1C1C000000000000806095
:10172000301C8C60301C0C00000000000000000029
:1017300000000000000000000000000000000000A9
:10174000000000E00000000000E000000086E69FCE
:1017500086868686E69F860000011F010101010141
:101760001F010100000080C06020F820E0C00000E0
:10177000000003070C18FF70E18100000000070F54
:1017800010107F100F0700008060206080000000B4
:10179000E02000000F3020309F70DC371030C00098
:1017A0000000100E03000718101807000000C020EA
:1017B00020E0C0000000000080E01F38E88703C47C
:1017C0003C040000070F1810100B070D1010080044
:1017D00000808C4C38000000000000000000000079
:1017E00000000000000000000000000000000000F9
:1017F0000000000000000000000080E0300804004D
:101800000000000000FEFF010000000000000000DA
:101810000000030F1820400000040830E0800000A2
:10182000000000000000000001FFFE0000000000BA
:10183000004020180F03000000000000000000001E
:101840000000C00000000000004266663C18FF185F
:101850003C6666420000000000000300000000003B
:1018600000000000000080000000000000101010C8
:101870001010FF10101010100000000000000300F6
:101880000000000000000000000000000000000058
:1018900000000000000000000000000000808C4CF0
:1018A0003800000000000000000000000000000000
:1018B0000000000000101010101010101010100088
:1018C0000000000000000000000000000000000018
:1018D0000000000000000000000000000000000008
:1018E0000000000000001C1C1C00000000000000A4
:1018F0000000000000000000E0380C0000000000C4
:1019000080701C03000000000060380E0100000021
:1019100000000000000080C060202060C080000047
:1019200000FEFF010000000001FFFE000001070EA5
:10193000181010180E0701000000808080C0E00021
:10194000000000000000000000FFFF000000000099
:1019500000001010101F1F10101000000080402009
:1019600020202060C0800000000303008040203859
:101970001F070000001C1A1918181818181F00005B
:101980000080C020202060C0800000000003030011
:101990001010182FE780000000070F10101010180B
:1019A0000F070000000000000000C0E0F000000091
:1019B00000C0B088868180FFFF80800000000000AA
:1019C0000010101F1F1010000000E06060606060D9
:1019D0006060000000003F1008080818F0E00000F8
:1019E00000070B101010101C0F030000000080C037
:1019F00040202020E0C0000000FCFF211008080863
:101A000018F0E0000001070C18101010080F030078
:101A10000000C0E06060606060E060000000030003
:101A20000000E0180700000000000000001F1F0079
:101A3000000000000080C0602020202060C08000E6
:101A40000087EF2C1818303068CF830000070F088C
:101A500010101010180F07000000C0C02020202018
:101A6000C0800000001F3F604040402010FFFE008B
:101A700000000C1C101010080F03000000000000F4
:101A8000000000000000000000000000000E0E0E2C
:101A90000000000000000000001C1C1C00000000F2
:101AA0000000000000000000000000000000000036
:101AB000000C0C000000000000000000005838007E
:101AC0000000000000000000000000804020100026
:101AD0000000102844820100000000000000000007
:101AE00000000102040810000000000000000000D7
:101AF00000000000008484848484848484848400BE
:101B000000000000000000000000000000001020A5
:101B10004080000000000000000000000000018282
:101B2000442810000000100804020100000000001A
:101B300000C020201010101030E0C000000303008F
:101B400000F010080C070300000000001C1C1C0023
:101B500000000000000000C0406020202040C000C5
:101B600000FCFF01F00E03C1FE03807F0001070EA1
:101B700008111110110904020000000080E0E000CB
:101B8000000000000000807C4340477FF880000098
:101B900010181F1000000000131F1C1020E0E02090
:101BA00020202060C080000000FFFF1010101018DF
:101BB0002FE78000101F1F1010101010180F0700C3
:101BC000000080C0402020202060E00000FCFF01D9
:101BD00000000000000001000001070E18101010A6
:101BE0000804030020E0E02020202040C080000006
:101BF00000FFFF000000000001FFFE00101F1F108B
:101C0000101018080E07010020E0E02020202020FE
:101C10002060800000FFFF101010107C000000000A
:101C2000101F1F10101010101018060020E0E020E8
:101C3000202020206060800000FFFF101010107C2A
:101C400000000100101F1F10000000000000000035
:101C5000000080C06020202040E0000000FCFF0168
:101C600000004040C0C140400001070E1810101095
:101C70000F0F000020E0E0200000000020E0E02046
:101C800000FFFF101010101010FFFF00101F1F109A
:101C900000000000101F1F100000202020E0E020A6
:101CA000202000000000000000FFFF0000000000F6
:101CB00000001010101F1F10101000000000000086
:101CC000202020E0E020202000000000000000FF95
:101CD000FF0000000060E0808080C07F3F000000C7
:101CE00020E0E020000020A06020200000FFFF3066
:101CF000187CE3C000000000101F1F10000001133B
:101D00001F1C181020E0E020000000000000000070
:101D100000FFFF000000000000000000101F1F1067
:101D2000101010101018060020E0E0E00000000085
:101D3000E0E0E02000FF013FFEC0E01E01FFFF00E9
:101D4000101F1000031F0300101F1F1020E0E0C031
:101D5000000000000020E02000FF0003071C78E0E6
:101D60008000FF00101F100000000000030F1F0084
:101D7000000080C060202060C080000000FEFF01E5
:101D80000000000000FFFE000001070E18101018F0
:101D90000C07010020E0E0202020202060C080000F
:101DA00000FFFF2020202020301F0F00101F1F10D9
:101DB0000000000000000000000080C060202060E3
:101DC000C080000000FEFF010000000000FFFE00D8
:101DD0000001070E1111133C7C67210020E0E02078
:101DE0002020202060C0800000FFFF101030F0D0C5
:101DF000080F0700101F1F10000000030F1C101019
:101E00000080C060202020204040E00000070F0C30
:101E10001818303060E08100001F0C0810101010FE
:101E2000180F07008060202020E0E0202020608044
:101E30000100000000FFFF000000000100000000A2
:101E4000101F1F100000000020E0E0200000000034
:101E50000020E02000FFFF00000000000000FF0065
:101E600000070F1810101010100807002060E0E0A5
:101E70002000000020E060200000077FF880008044
:101E80007C03000000000000071F1C07000000008A
:101E900020E0E02000E0E0200020E0200007FFF844
:101EA000E01FFFFCE01F00000000031F0300011FF4
:101EB00003000000002060E0A0000020E06020009F
:101EC000000000038F7CF8C6010000000010181EFF
:101ED000130001171F1810002060E0E02000000030
:101EE00020E06020000001073EF8E0180700000035
:101EF00000000010101F1F10100000000080602064
:101F0000202020A0E0E0200000000000C0F03E0FF4
:101F10000300000000101C1F1710101010180600FE
:101F20000000000000FC04040404040000000000A1
:101F300000FF00000000000000000000007F4040A3
:101F400040404000000010E00000000000000000E1
:101F500000000000031C6080000000000000000082
:101F6000000000030C70800000000404040404FC62
:101F70000000000000000000000000FF0000000062
:101F8000000040404040407F000000000000001082
:101F9000080C040C08100000000000000000000005
:101FA0000000000000000000000000000000000031
:101FB0000000000000000000000000000000000021
:101FC0000000000000000000808080808080808011
:101FD00080808080000000040408080000000000E9
:101FE00000000000000000000000000000000000F1
:101FF00000000000000000000000000000000000E1
:1020000000000000000098D844642424FCF800007C
:10201000000F1F18101010081F1F10180020E0F0EC
:1020200000000000000000000000FFFF180804048A
:102030000CF8F00000001F0F18101010180F03000C
:1020400000000000000000000000000000E0F818A0
:102050000404043C3800000000030F0C10101010A2
:10206000080600000000000000000020E0F0000072
:1020700000E0F81C04040408FFFF000000030F1830
:10208000101010081F0F08000000000000000000E2
:10209000000000000000E0F8484444444C78700020
:1020A0000000030F0C1810101008040000000000BE
:1020B00080C0602020E0C00000040404FFFF04048E
:1020C00004040000000010101F1F1010100000007A
:1020D000000000000000000000000000000070F898
:1020E0008C04048CF874040C007076CF8D8D8D896F
:1020F000C87870000020E0F0000000000000000040
:102100000000FFFF08040404FCF8000000101F1F7B
:10211000100000101F1F1000000000000060600091
:10212000000000000000040404FCFC0000000000AB
:1021300000001010101F1F10101000000000000001
:10214000000000606000000000000000040404FCC7
:10215000FC0000000000C0C08080C07F3F00000085
:102160000020E0F000000000000000000000FFFF81
:1021700080C0F41C0404000000101F1F1100031F86
:102180001C1010000000202020E0F00000000000E3
:102190000000000000FFFF00000000000000101021
:1021A000101F1F10101000000000000000000000B1
:1021B0000000000004FCFC0804FCFC0804FCFC001B
:1021C000101F1F10001F1F10001F1F100000000015
:1021D00000000000000000000004FCFC08080404EB
:1021E000FCF8000000101F1F100000101F1F10003F
:1021F00000000000000000000000000000E0F018F7
:102200000C04040C18F0E00000030F0C1010101068
:102210000C0F0300000000000000000000000000A0
:102220000004FCFC080404040CF8F0000080FFFF2C
:10223000889010101C0F0300000000000000000038
:102240000000000000E0F81C04040408F8FC000092
:1022500000030F1810109088FFFF8000000000009E
:102260000000000000000000040404FCFC1008044E
:10227000040C0C001010101F1F10101000000000A4
:1022800000000000000000000000000000003078A6
:10229000CCC48484840C1C0000001E181010101183
:1022A000190F06000000000000C000000000000040
:1022B00000040404FFFF0404040000000000000008
:1022C0000F1F1010100C00000000000000000000A4
:1022D000000000000004FCFE00000004FCFE000002
:1022E00000000F1F181010081F0F0800000000004A
:1022F000000000000000000000040C3CFCC40000D2
:10230000C43C0C0400000000010F1E0E0100000080
:10231000000000000000000000000000043CFCC4BD
:1023200000E47CFC84807C040000071F0700000799
:102330001F07000000000000000000000000000077
:102340000004041C7CE4C0341C0404000010101CB5
:102350001601131F1C1810000000000000000000F0
:102360000000000000040C3CFCC400C43C04040059
:102370000000C080C1370E01000000000000000016
:10238000000000000000000000001C0404C4F47CF5
:102390001C0400000000101C1F17111010180E0064
:1023A00000000000000000F80C0400000000000025
:1023B000001028EF00000000000000000000003FB7
:1023C00060400000000000000000FF00000000006E
:1023D000000000000000FF000000000000000000FE
:1023E0000000FF00000000000000040CF8000000E6
:1023F0000000000000000000EF28100000000000B6
:10240000000040603F0000000000000000180602CD
:102410000204081020203008000000000000000026
:1024200000000000000000000000000000000000AC
:1024300000000808E84848C80404FC04040400003C
:10244000000000000702020322407F00000000009D
:10245000006080FE2090E05EF058A0DC3820000094
:10246000004038070848370974023101126400003F
:10247000000040201856504828A8A8080000000076
:10248000000000010101010101031C2040608000E7
:102490000000C0E018262020E0FCA0202000000062
:1024A0000001002F1008060908FF080B04080800A7
:1024B000000C120C00C07010080808081030000052
:1024C00000000000000F183020202020301C0000E9
:1024D000000C120C0000F8F80808080808080800AA
:1024E0000000000000001F1F0101010101000000A9
:1024F00000788484780080403008040000000000E8
:102500000000300804031C22223E001C22223E0050
:10251000000000C080808080808080FC848080807B
:10252000808080C0C0000000000000FF7F4040406D
:10253000404040FF40404040404040FF7F0000009E
:1025400000000000000000000000007F700000009C
:10255000000000000000000000000000000000007B
:1025600000000000000000FCF80000000000000077
:10257000000000000000000000000000FFFE02025A
:1025800002020202020202FFFF0202020202020231
:102590000202FF0300000000000000001F1F0404EF
:1025A00004040404040404FFFF04040404040404F5
:1025B00004041F00000000000000000000000000F4
:1025C000000000000000007F3F000000000000004D
:1025D00000000000000000000000000000000000FB
:1025E00000000000000000000000000000000000EB
:1025F0000000000000F8F8F0F0702000000000007B
:1026000000000000000000000000000000000000CA
:1026100000000000000000000000000000000000BA
:10262000800000000000000000000000000000002A
:102630000000000000FFFFFFFF000000000000009E
:10264000000000000000000000000000808000008A
:10265000000000000000000000000000000000007A
:1026600000FFFFFE06060606060606060606060626
:102670000606060606FFFFFFFF0606060606060616
:102680000606060606060606060606FFFFFFFF0705
:102690000200000000000000000000000000000038
:1026A00000FFFFFF0000000000000000000000002D
:1026B0000000000000FFFFFFFF000000000000001E
:1026C0000000000000000000000000FFFFFFFF000E
:1026D00000000000000000000000000000000000FA
:1026E00000FFFFFF181818181818181818181818CD
:1026F0001818181818FFFFFFFF18181818181818BE
:102700001818181818181818181818FFFFFFFF00C5
:1027100000000000000000000000000000000000B9
:1027200002010100000000000000000000000000A5
:102730000000000000FFFFFFFF000000000000009D
:102740000000000000000000000000010100000087
:102750000000000000000000000000000000000079
:102760000000000000000000000000000000000069
:102770000000000000FFFFFFFF000000000000005D
:102780000000000000000000000000000000000049
:102790000000000000000000000000000000000039
:1027A0000000000000000000000000000000000029
:1027B00000000000001F1F0F0F00000000000000BD
:1027C0000000000000000000000000000000000009
:1027D0000000000000000000F827000800000020B2
:1027E00014000000F00900080C2800081400002064
:1027F00004040000000A00080000000001020304B5
:0C28000001020304060708090204060890
:04000005080000ED02
:00000001FF
